:100000000C94E90B0C94060C0C94210C0C94060C2B
:100010000C94060C0C94060C0C9490270C94060C73
:100020000C94060C0C94060C0C94060C0C94060C08
:100030000C94060C0C94060C0C9432280C94060CB0
:100040000C94060C0C94060C0C94060C0C94060CE8
:100050000C94060C0C94060C0C94060C0C94060CD8
:100060000C94060C0C94060C00000000000000002C
:100070000000000000000000000000000000000080
:100080000000000000000000000000000000000070
:100090000000000000000000000000000000000060
:1000A0000000000000000000000080808040402030
:1000B0002010080402040810102020404080800016
:1000C0000000000000000000000000000000000030
:1000D0000000000000000000000000000000000020
:1000E0000000000000000000000000000000000010
:1000F0000000000000000000000000000000000000
:1001000000000000000000000000000000000000EF
:1001100000000000000000000000003FC1010102DB
:1001200002040404040202010101000000000000B6
:10013000800000408080400000303000000000015E
:100140000264180412C2CA2488F0808040404040F3
:1001500020202020101010100808080804040404AF
:100160000202020201010101000000000000000083
:10017000000000000000000000000000000000007F
:10018000000000000000000000000000000000006F
:1001900000000000000000000000E0180601000060
:1001A00000000000000000000080838340404040C9
:1001B000202121201010101008080808040404044D
:1001C0000202020201010101000000000000000023
:1001D000000000000000000000000000000000001F
:1001E000000000000000000000000000000000000F
:1001F00000000000000000000000000000000000FF
:1002000000000000000000008080808040404040EE
:100210002020202010101010080F080804040404E7
:1002200002040810102020404041422498C08888D1
:100230008C9C1C1E0E060000000000000000000048
:1002400000000000000000000000000000000000AE
:10025000000000000000000000000000000000009E
:10026000000000000000000000000000000000008E
:10027000000000000000000000000000000000007E
:10028000000000000000000000000000000000006E
:10029000000000000000000000000000000000005E
:1002A000000000000000000000000000000000004E
:1002B000000000000000000000000000000000003E
:1002C000000000000000000000000000000000002E
:1002D000000000000000000000000000000000001E
:1002E000000000000000000000000000000000000E
:1002F00000000000000000000000000000000000FE
:1003000000000000000000000000000000000000ED
:1003100000000000000000000000000000000000DD
:100320000000000000008080804040202010080471
:1003300002040810102020404080800000000000CF
:1003400000000000000000000000000000000000AD
:10035000000000000000000000000000000000009D
:10036000000000000000000000000000000000008D
:10037000000000000000000000000000000000007D
:10038000000000000000000000000000000000006D
:10039000000000000000003FC1010102020484448B
:1003A0004442820101010000000000008000004082
:1003B000808040000030300000000001020404088A
:1003C0000810204080808080404040402020202035
:1003D00010101010080808080404040402020202A5
:1003E0000101010100000000000000000000000009
:1003F00000000000000000000000000000000000FD
:1004000000000000000000000000000000000000EC
:10041000000000000000E018060100000C030002CC
:1004200018190005FE808383404040402021212090
:1004300010101010080808080404040404083040D0
:10044000808000000186986000000000000000002D
:10045000000000000000000000000000000000009C
:10046000000000000000000000000000000000008C
:10047000000000000000000000000000000000007C
:1004800000000000808080804040404020202020EC
:1004900010101010080F08080404040402020202DD
:1004A0000101010100000000000000000000000048
:1004B00000000000000000060F0F07030361F0F8C2
:1004C000FC600101013C78F8F070000000000000C1
:1004D000000000000000000000000000000000001C
:1004E000000000000000000000000000000000000C
:1004F00000000000000000000000000000000000FC
:1005000000000000000000000000000000000000EB
:1005100000000000000000000000000000000000DB
:1005200000000000000000000000000000000000CB
:1005300000000000000000000000000000000000BB
:1005400000000000000000000000000000000000AB
:10055000000000000000000000000000000000009B
:10056000000000000000000000000000000000008B
:10057000000000000000000000000000000000007B
:10058000000000000000000000000000000000006B
:10059000000000000000000000000000000000005B
:1005A00000008080804040202010080402040810D1
:1005B000102020404080800000000000000000006B
:1005C000000000000000000000000000000000002B
:1005D000000000000000000000000000000000001B
:1005E000000000000000000000000000000000000B
:1005F00000000000000000000000000000000000FB
:1006000000000000000000000000000000000000EA
:100610000000003FC10101020204844444428201FF
:1006200001010000000000008000004080804000C8
:1006300000303000000000010264180412C2CA2415
:1006400088F0808040404040202020201010101072
:10065000080808080404040402020202010101015E
:10066000000000000000000000000000000000008A
:10067000000000000000000000000000000000007A
:10068000000000000000000000000000000000006A
:100690000000E018060100000C0300021819000514
:1006A000FE80838340404040202121201010101004
:1006B00008080808040404040202020201010101FE
:1006C000000000000000000000000000000000002A
:1006D000000000000000000000000000000000001A
:1006E000000000000000000000000000000000000A
:1006F00000000000000000000000000000000000FA
:100700008080808040404040202020201010101029
:10071000080F080804040404020202020101010196
:1007200000000000000000000000000000000000C9
:1007300000000000000000000000000000000000B9
:1007400000000000000000000000000000000000A9
:100750000000000000000000000000000000000099
:100760000000000000000000000000000000000089
:100770000000000000000000000000000000000079
:100780000000000000000000000000000000000069
:100790000000000000000000000000000000000059
:1007A0000000000000000000000000000000000049
:1007B0000000000000000000000000000000000039
:1007C0000000000000000000000000000000000029
:1007D0000000000000000000000000000000000019
:1007E0000000000000000000000000000000000009
:1007F00000000000000000000000000000000000F9
:1008000000000000000000000000000000000000E8
:100810000000000000000000000000808040404018
:10082000202020202018040201020408102020406B
:100830004080800000000000000000000000000078
:1008400000000000000000000000000000000000A8
:100850000000000000000000000000000000000098
:100860000000000000000000000000000000000088
:100870000000000000000000000000000000000078
:100880000000000000000000000000000000003F29
:10089000C10101020204040404020201000000007C
:1008A00000000000800000408080400000303000E8
:1008B00000000001020404080810204080808080AD
:1008C0004040404020202020101010100808080848
:1008D00004040404020202020101010100000000FC
:1008E0000000000000000000000000000000000008
:1008F00000000000000000000000000000000000F8
:100900000000000000000000000000000000E018EF
:10091000060100000000000000000000008083834A
:1009200040404040202121201010101008080808E5
:1009300004040404040830408080000001869860AC
:1009400000000000000000000000000000000000A7
:100950000000000000000000000000000000000097
:100960000000000000000000000000000000000087
:100970000000000000000000000000008080808077
:10098000404040402020202010101010080F080880
:1009900004040404020408101020204040414224B2
:1009A000180000000000000000000000000000002F
:1009B0000000000000000000000001010100000034
:1009C0000000000000000000000000000000000027
:1009D0000000000000000000000000000000000017
:1009E0000000000000000000000000000000000007
:1009F00000000000000000000000000000000000F7
:100A000000000000000000000000000000000000E6
:100A100000000000000000000000000000000000D6
:100A200000000000000000000000000000000000C6
:100A300000000000000000000000000000000000B6
:100A400000000000000000000000000000000000A6
:100A50000000000000000000000000000000000096
:100A60000000000000000000000000000000000086
:100A70000000000000000000000000000000000076
:100A80000000000000000000000000000000000066
:100A90000000000000000000000080804040402076
:100AA00010080402010204081020408080000000A9
:100AB0000000000000000000000000000000000036
:100AC0000000000000000000000000000000000026
:100AD0000000000000000000000000000000000016
:100AE0000000000000000000000000000000000006
:100AF00000000000000000000000000000000000F6
:100B000000000000000000000000003FC1010102E1
:100B100002040404040202010101000000000000BC
:100B200000000080000080000060600000010204FE
:100B30000408081010202040808080804040404001
:100B400020202020101010100808080804040404B5
:100B50000202020201010101000000000000000089
:100B60000000000000000000000000000000000085
:100B70000000000000000000000000000000000075
:100B800000000000000000000000C0300C03000066
:100B900000000000000000000080868640404040C9
:100BA000212222201111101008080808040404044E
:100BB000040830408080000001869860000000003A
:100BC0000000000000000000000000000000000025
:100BD0000000000000000000000000000000000015
:100BE0000000000000000000000000000000000005
:100BF00000000000000000008080808040404040F5
:100C00002020202010101010080F080804040404ED
:100C10000204081010202040404142241800000027
:100C200000000000000000000000000000000000C4
:100C300000000000000001010100000000000000B1
:100C400000000000000000000000000000000000A4
:100C50000000000000000000000000000000000094
:100C60000000000000000000000000000000000084
:100C70000000000000000000000000000000000074
:100C80000000000000000000000000000000000064
:100C90000000000000000000000000000000000054
:100CA0000000000000000000000000000000000044
:100CB0000000000000000000000000000000000034
:100CC0000000000000000000000000000000000024
:100CD0000000000000000000000000000000000014
:100CE0000000000000000000000000000000000004
:100CF00000000000000000000000000000000000F4
:100D000000000000000000000000000000000000E3
:100D10000000000000008080808040402010080417
:100D20000204081020408080000000000000000045
:100D300000000000000000000000000000000000B3
:100D400000000000000000000000000000000000A3
:100D50000000000000000000000000000000000093
:100D60000000000000000000000000000000000083
:100D70000000000000000000000000000000000073
:100D8000000000000000007E82020204040808083F
:100D900008040402010100000000000000000080BF
:100DA00000008000006060000101020404080810D7
:100DB0001020204080808080404040402020202023
:100DC00010101010080808080404040402020202AB
:100DD000010101010000000000000000000000000F
:100DE0000000000000000000000000000000000003
:100DF00000000000000000000000000000000000F3
:100E0000000000000000C0300C03000000000000E3
:100E100000000000008086864040404021222220C1
:100E200011111010080808080404040404083040D4
:100E30008080000001869860000000000000000033
:100E400000000000000000000000000000000000A2
:100E50000000000000000000000000000000000092
:100E60000000000000000000000000000000000082
:100E700000000000808080804040404020202020F2
:100E800010101010080F08080404040402040810CD
:100E900010202040404142241800000000000000C3
:100EA0000000000000000000000000000000000042
:100EB000000001010100000000000000000000002F
:100EC0000000000000000000000000000000000022
:100ED0000000000000000000000000000000000012
:100EE0000000000000000000000000000000000002
:100EF00000000000000000000000000000000000F2
:100F000000000000000000000000000000000000E1
:100F100000000000000000000000000000000000D1
:100F200000000000000000000000000000000000C1
:100F300000000000000000000000000000000000B1
:100F400000000000000000000000000000000000A1
:100F50000000000000000000000000000000000091
:100F60000000000000000000000000000000000081
:100F70000000000000000000000000000000000071
:100F80000000000000000000000000000000000061
:100F90000000808080804040201008040204081077
:100FA00020408080000000000000000000000000E1
:100FB0000000000000000000000000000000000031
:100FC0000000000000000000000000000000000021
:100FD0000000000000000000000000000000000011
:100FE0000000000000000000000000000000000001
:100FF00000000000000000000000000000000000F1
:1010000000001C34C404040408080808080404028E
:1010100001010000000000008000004080804000CE
:1010200000303000010102020404040808102040CE
:1010300080808080404040402020202010101010F0
:101040000808080804040404020202020101010164
:101050000000000000000000000000000000000090
:101060000000000000000000000000000000000080
:101070000000000000000000000000000000000070
:101080000000E01806010000000000000000000061
:101090000080838340404040202121201010101008
:1010A0000808080804040404040830408080000094
:1010B00001869860000000000000000000000000B1
:1010C0000000000000000000000000000000000020
:1010D0000000000000000000000000000000000010
:1010E0000000000000000000000000000000000000
:1010F0008080808040404040202020201010101030
:10110000080F0808040404040204081010202040FA
:1011100040414224180000000000000000000000D0
:1011200000000000000000000000000000000101BD
:1011300001000000000000000000000000000000AE
:10114000000000000000000000000000000000009F
:10115000000000000000000000000000000000008F
:10116000000000000000000000000000000000007F
:10117000000000000000000000000000000000006F
:10118000000000000000000000000000000000005F
:10119000000000000000000000000000000000004F
:1011A000000000000000000000000000000000003F
:1011B000000000000000000000000000000000002F
:1011C000000000000000000000000000000000001F
:1011D000000000000000000000000000000000000F
:1011E00000000000000000000000000000000000FF
:1011F00000000000000000000000000000000000EF
:10120000000000000000000000000080804040401E
:101210002020202020180402010204081020204071
:10122000408080000000000000000000000000007E
:1012300000000000000000000000000000000000AE
:10124000000000000000000000000000000000009E
:10125000000000000000000000000000000000008E
:10126000000000000000000000000000000000007E
:1012700000000000000000000000000000060D312A
:10128000C101010102020204040202010000000087
:1012900000000000800000408080400000303000EE
:1012A00000000001020404080810204080808080B3
:1012B000404040402020202010101010080808084E
:1012C0000404040402020202010101010000000002
:1012D000000000000000000000000000000000000E
:1012E00000000000000000000000000000000000FE
:1012F0000000000000000000000000000000E018F6
:101300000601000000000000000000000080838350
:1013100040404040202121201010101008080808EB
:1013200004040404040830408080000001869860B2
:1013300000000000000000000000000000000000AD
:10134000000000000000000000000000000000009D
:10135000000000000000000000000000000000008D
:10136000000000000000000000000000808080807D
:10137000404040402020202010101010080F080886
:1013800004040404020408101020204040414224B8
:101390001800000000000000000000000000000035
:1013A000000000000000000000000101010000003A
:1013B000000000000000000000000000000000002D
:1013C000000000000000000000000000000000001D
:1013D000000000000000000000000000000000000D
:1013E00000000000000000000000000000000000FD
:1013F00000000000000000000000000000000000ED
:1014000000000000000000000000000000000000DC
:1014100000000000000000000000000000000000CC
:1014200000000000000000000000000000000000BC
:1014300000000000000000000000000000000000AC
:1014400000000000000000002B0014001A0008003B
:10145000150017001C0001510400160007000900C8
:101460000A000B00E1003800E4001B000600190030
:101470000500E000E2000251E6002C002C002C00E8
:1014800000003400A800130012000C001800000037
:10149000E3002A0028000F000E000D0000001D00D0
:1014A000E500370036001000110029001E001F0063
:1014B000200021002200230001000100350031003E
:1014C000010001000100010001004F0001000100C6
:1014D0000100010001000100510050004A0001001C
:1014E0004D00000001000100270026002500240017
:1014F000000001004C003400330030002F000000D9
:101500000100520038002E002D00010001003A00B9
:101510003B003C003D003E003F003900010001005F
:1015200001000100010001000100010001000100B3
:1015300001000100010001000100010001000100A3
:1015400001000100000001000100430042004100D1
:101550004000000001000100010001000100010045
:101560000000010001000100010001000100010074
:101570000100010001000100010001000100010063
:101580000100010001000100010001000100010053
:101590000100010001000100010001000100010043
:1015A0000100010001000000010001000100010034
:1015B0000100010000000100010001000100010024
:1015C0000100000001000100010001000100010014
:1015D00000000000000000002A2B2800000000008E
:1015E00000000000000000000000002900000000D2
:1015F0002C1E3420212224342627252E362D373840
:10160000271E1F202122232425263333362E373848
:101610001F0405060708090A0B0C0D0E0F10111206
:10162000131415161718191A1B1C1D2F3130232DD2
:10163000350405060708090A0B0C0D0E0F101112D0
:10164000131415161718191A1B1C1D2F3130354C81
:10165000000000000000000000000000000000008A
:10166000000000000000000000000000000000007A
:10167000000000007E0F00D4FFFFFFC700000078CD
:1016800000AE00AF00DA0281FFD9F1DB20A4A62E64
:10169000AF00A0C000A1C800AED580A81FD30040F5
:1016A0008D14200009025B00030100A0FA09040068
:1016B000000103010100092101010001224000078E
:1016C000058103080001090401000203000000096C
:1016D00021010100012222000705840308000107FF
:1016E00005040308000109040200010300000009C9
:1016F00021010100012232000705830308000112C5
:1017000001100100000008776D03170001010200BD
:101710000112034D006500720063007500740069DA
:10172000006F00000012034D006500630068005761
:101730000069006C0064000000040309040660FFF7
:101740000961A1010962150026FF00952075088135
:10175000020963150026FF00952075089102C00557
:10176000010980A101850319012AB700150126B7D7
:1017700000950175108100C0050C0901A1018504C7
:1017800019012AA002150126A002950175108100F9
:10179000C005010906A101050719E029E715002583
:1017A00001950875018102950175088103050719E6
:1017B0000029FF150026FF00950675088100050821
:1017C000190129059505750191029501750391038C
:1017D000C00011241FBECFEFD8E0DEBFCDBF11E0A7
:1017E000A0E0B1E0ECEFF8E502C005900D92A23A5E
:1017F000B107D9F726E0A2EAB1E001C01D92A634F4
:10180000B207E1F70E94F91D0C945D2C0C940000C6
:10181000A82FB92F80E090E041E050EA609530E0D9
:1018200009C02D9182279795879510F084279527D9
:10183000305EC8F36F5FA8F30895EADF8D939D9340
:101840000895CF93CFB7CF93DF93C3954B9BE9F721
:101850004B9B10C04B9B0EC04B9B0CC04B9B0AC0BC
:101860004B9B08C04B9B06C0C0911D06C395C093FF
:101870001D068EC06F93C0911C06DD27CC5DD94F2D
:101880002F9365E54B9B03C02F916F91E1CF0F9391
:101890001F934F9320E040E15F9309B10C7003FB6D
:1018A00027F93F9350E03BE039C01C7040642F772C
:1018B000012F5F5F1EC0406819B11C702F77525016
:1018C0001FC0406409B12F770C70D1F15F5F00C079
:1018D00023C0406219B12F771C7091F15F5F00C087
:1018E00025C00C701027515012F45D5F000011509C
:1018F00027952C3F19B1C8F61C7001270150279578
:101900002C3FC8F64227499309B10C7010274F733A
:10191000115027952C3FA8F64695469519B11C7095
:1019200079F00127015027952C3F98F66B5A60F308
:10193000315009B1B0F600C012E01CBB00271CC03A
:101940003B503195C31BD04012E01CBB0881033CC7
:1019500021F10B3411F1209119061981110F121385
:10196000EDCF4A81441F093679F10D3211F0013E65
:1019700029F74F7009F0042F009322063F915F91E1
:101980004F911F910F912F916F91CCB3C1FD5DCFFE
:10199000DF91CF91CFBFCF911895209122062223BE
:1019A00069F310912006112309F049C034300AF47C
:1019B00048C03093200620931B0610911C063BE084
:1019C000311B30931C063DC0009120060130BCF550
:1019D0000AE54F7049F43091180134FD33C000938B
:1019E0001801C6EFD5E032C0433059F0443091F0D1
:1019F0003091010634FD26C000930106C2E0D6E016
:101A000025C030913A0634FD1DC000933A06CBE361
:101A1000D6E01CC030910D0634FD14C000930D06B5
:101A2000CEE0D6E013C0052710E000C000000BB9DF
:101A30001AC0052710E0221F1DC010E021C04AE592
:101A400002C032ED432FC4E1D0E032E01AB11C6095
:101A50005B9A0BB11AB95CE020E865E320FF05272B
:101A60000BB9279517951C3FF0F66695B8F7B1F7B7
:101A700020FF05270BB9279517951C3FD0F6279512
:101A8000179517FF052700001C3F0BB9B0F62991E9
:101A90003A9519F7037F10912106110FC651D040D6
:101AA0000BB911F01093190612E01CBB08601AB1B3
:101AB000137F402F437F54E05A95F1F70BB91AB9C1
:101AC0004BB95CCF811106C089EA611101C08AEA75
:101AD0000E94921181E00895FF920F931F93CF937C
:101AE000DF93E6E7F3E0A2E1B3E08AED93E0208143
:101AF0002C93218111962C931197329612968E1762
:101B00009F07A9F701E010E0F12CC1E0D0E08FEFD2
:101B1000800F0E94B81C50E040E090E0212F240F7D
:101B200030E0A1E0A40FBE01042E02C0660F771FB3
:101B30000A94E2F768237923220F331FF901EA5848
:101B4000FC4F672BE9F00083A183F901EE5EFC4FA7
:101B50002081211105C02181211102C0FF24F394AD
:101B60004F5F5F4F47305105C9F6195F0F5F113363
:101B700071F68F2DDF91CF911F910F91FF900895F6
:101B800010821182EDCF0E946C0D8093AF01909175
:101B9000AE01913059F0992319F09230E9F008958F
:101BA000882349F182E08093AE0108958111FACF34
:101BB0006091A8017091A9018091AA019091AB0157
:101BC0000E9416286E3E724081059105A0F0109289
:101BD000AE011092AD01089581110DC081E0809396
:101BE000AE010E94FB276093A8017093A901809326
:101BF000AA019093AB01089582E008950E94742198
:101C0000882391F00E94891F0E94C30D60E080E04C
:101C10000E94E61F8091AE01813009F445C08823FF
:101C200029F0823009F447C080E008958091AD0129
:101C300024E030E0281B310937FF03C0319521959E
:101C400031094CE752E0249FC001259F900D349F3D
:101C5000900D11246CE772E08452984F0E94FD1F92
:101C60006091A4017091A5018091A6019091A701B6
:101C70000E9416286C34710581059105A8F28091A7
:101C8000AD0190E0019665E070E00E94ED2B80933D
:101C9000AD010E94FB276093A4017093A50180937E
:101CA000A6019093A701C0CF6CE772E080E695E0B3
:101CB0000E94FD1FB9CF8091AC0121E030E0281BCC
:101CC000310937FF03C03195219531094CE752E0C6
:101CD000249FC001259F900D349F900D11246CE727
:101CE00072E088599F4F0E94FD1F8091AC0190E0E7
:101CF0000196817099278093AC0196CF81E0089579
:101D000081E008950C94800E08950C94840E1F9326
:101D1000CF93DF9300D000D00F92CDB7DEB74983C9
:101D20005A836B833091B10189819A8131111DC031
:101D30006623B9F02223A9F00E940115182F682FFD
:101D400089819A810E94AD1469817A81812F0F90D7
:101D50000F900F900F900F90DF91CF911F910C94E7
:101D6000B6230E94D914182FEFCF0E940115698164
:101D70007A81EDCFFC01262F4081518162817381F0
:101D800084810C94870E81E00895CF93DF93EC015A
:101D900060E00E94BA0EBE01DF91CF910C94850ED7
:101DA000E1E0F0E0DF0102C0AA0FBB1F6A95E2F795
:101DB000BD01DF0102C0AA0FBB1F4A95E2F76A2BE3
:101DC00001C0EE0F2A95EAF7962F9823961302C0CA
:101DD0008E2B0895E0958E230895242F462F682F8B
:101DE0008091C7010E94D00E0C946A140C94B31C0D
:101DF0000C94B61C08950E9406140E94FA0E2FEF50
:101E000084E39CE0215080409040E1F700C0000056
:101E10000C9456280F931F93CF93DF938C0161E0AE
:101E20000E94BA0EEC01B8010E94681E8823D9F105
:101E3000B801CE010E94820E8823A9F1B801CE011B
:101E40000E947A25882379F1B801CE010E94B12140
:101E5000882349F1B801CE010E94E424882319F1B6
:101E6000F8018281882361F0CA35FDE5DF0721F1A1
:101E700070F4C115ECE5DE07A1F0CE3DDC45C9F0FC
:101E8000C801DF91CF911F910F910C947E0ECB353D
:101E90008DE5D807A1F0CC35DD4591F70E940819F2
:101EA000EFCF0E94FB0E80E0DF91CF911F910F9149
:101EB00008950E94C119F7CF0E941119E1CF0E9425
:101EC0001419DECF0E9475270E944D100C945921E1
:101ED0000E9450100C947927DF92EF92FF920F939B
:101EE0001F93CF93DF93E82FF0E0E053FA4ED490A6
:101EF000282F26952695269530E0F901E059F94ED0
:101F00000491877010E0082E02C0159507950A9479
:101F1000E2F701701127F901E05AF94EE490F12C33
:101F2000082E02C0F594E7940A94E2F791E0E922C2
:101F3000FF24F901E05BF94EC491D0E002C0D595D1
:101F4000C7958A95E2F7C170DD270115110519F0D3
:101F500081EE0E94A210E114F10419F086EE0E94B5
:101F6000A2108D2D0E949211EF2819F086EE0E948A
:101F70002C11012B19F081EE0E942C11CD2B51F068
:101F80008CE2DF91CF911F910F91FF90EF90DF9046
:101F90000C949211DF91CF911F910F91FF90EF90D0
:101FA000DF900895EF92FF920F931F93CF93DF93EB
:101FB000EC01162F0AE08881882309F454C081308F
:101FC00009F04EC08981813099F47E0122E0E20E51
:101FD000F11C8A810E949211E7012196812F815084
:101FE00050F3EFE9FFE03197F1F700C00000F7CFC1
:101FF000823041F47E0182E0E80EF11C8A810E9469
:10200000A210EACF833041F47E01E2E0EE0EF11C33
:102010008A810E942C11E0CF843011F02196DDCF0F
:102020002A81229690E080E0AE014F5F5F4F2053FF
:10203000330B2A30310548F0019778F2EFE9FFE0E1
:102040003197F1F700C00000F7CF089FB001099F5A
:10205000700D1124C901860F971F2981EA01E4CF71
:102060000E946C0FBACFDF91CF911F910F91FF901B
:10207000EF90089560E00C94D20F08950C943D10F9
:1020800081E008950C9440100895CF93C82F0E94CA
:102090003E108C2FCF910C94421080E00C94451090
:1020A0000E94DD260C9445100E94DD269091B0011F
:1020B000981721F08093B0010C9445100895CF93A8
:1020C000DF93CDB7DEB72B970FB6F894DEBF0FBE08
:1020D000CDBF4F83588769877A878B8761110E94AC
:1020E0006F181E821D8285E0FE013796DE01119673
:1020F00001900D928A95E1F78C819D81892B89F45D
:1021000049815A816B817C818D819E810E949017CB
:102110002B960FB6F894DEBF0FBECDBFDF91CF91E7
:10212000089589819A8189238F3F51F3CE010196C9
:102130000E94C30E8111E4CFEBCFFC01808191811D
:102140000C942E15CF93C82F882309F483C08238AE
:10215000C1F40E94DD2681FD7DC089E30E942A181A
:102160000E948F182FEF81EE94E021508040904024
:10217000E1F700C0000089E30E943118CF910C9470
:102180008F188338A1F40E94DD2680FD63C083E5AB
:102190000E942A180E948F182FEF81EE94E02150A0
:1021A00080409040E1F700C0000083E5E5CF84382F
:1021B000A1F40E94DD2682FD4DC087E40E942A180A
:1021C0000E948F182FEF81EE94E0215080409040C4
:1021D000E1F700C0000087E4CFCF8CEF8C0F813A8D
:1021E00090F46C2F80910201909103010E9432279C
:1021F000882329F08C2F0E9431180E948F188C2F71
:102200000E942A18BBCF80E28C0F883048F4C77038
:1022100081E001C0880FCA95EAF70E945218AECF3C
:10222000EBE5EC0FE33040F4F0E0E95BFE4F80813A
:1022300090E0CF910C94F426C85AC73158F4EC2F93
:10224000F0E0EE0FFF1FE75EFE4F80819181CF919E
:102250000C940A27CF910895882309F44BC0823843
:1022600071F40E94DD2681FF45C089E30E942A188F
:102270000E948F1889E30E9431180C948F188338BC
:1022800059F40E94DD2680FF35C083E50E942A189C
:102290000E948F1883E5EFCF843859F40E94DD2621
:1022A00082FF28C087E40E942A180E948F1887E4C2
:1022B000E2CF9CEF980F913AF0F290E2980F9830AD
:1022C00050F4877091E001C0990F8A95EAF7892F41
:1022D0000E945818D2CF9BE5980F933020F490E0DD
:1022E00080E00C94F426885A873120F490E080E056
:1022F0000C940A2708951F93CF93DF93182FEB01B7
:102300000E94A210209731F4812FDF91CF911F916D
:102310000C942C118FE99FE00197F1F700C00000A9
:102320002197F0CF6AE070E0893311F460E570E046
:102330000C947B11882321F00E9452180C948F1862
:102340000895882321F00E9458180C948F1808953E
:10235000BF92CF92DF92EF92FF920F931F93CF9392
:10236000DF936C01D62FC72FFC011281F580F29408
:102370009FE0F9220E944818E82E8823B9F0E12E48
:102380001123A1F08C2F807F803421F080E28D0F0B
:102390008830D0F08091DB0382FD16C082E00E947D
:1023A000D7180E94481891E0E82EE926BC2EB29476
:1023B0008FE0B822FBE0FB1508F468C0EB2DF0E0DD
:1023C000E15AF34D0C94012CE12CF0CF0C2F0F703F
:1023D000C07F11F00295007F112399F0002359F07E
:1023E00080E28D0F883010F0D11107C0802F0E943D
:1023F00052180E948F188D2F41C0802F0E946218A2
:10240000F8CF8D2F0E942C11002309F43FC080E2E9
:102410008D0F883010F0D11104C0802F0E94581801
:1024200003C0802F0E9468180E948F182FC00C2FA5
:102430000F70C07FC03211F00295007FDD2381F064
:10244000D13009F46AC0112309F474C0FF2009F4E3
:102450006AC0F601858180FFCECF8F70858363C00F
:102460008091DB0382FF39C0112359F0002329F04A
:10247000802F0E9452180E948F1880E00E94A210A4
:1024800005C080E00E942C110111C7CF2B2D2850D0
:10249000330B2430310520F40E94DD260E944510C4
:1024A000EE2009F456C10E94441880FD52C1F60185
:1024B00012820E943E180E947B14C6010E94CA1319
:1024C0000E943E18DF91CF911F910F91FF90EF90E6
:1024D000DF90CF90BF900C948614112389F0F110F7
:1024E00006C00E947218802B0E949A11CFCF21E063
:1024F000F212F7CF0E947218802B0E947818C6CF74
:10250000F11006C00E948518802F0E94A111BECF35
:1025100031E0F31609F4BACFF5CF112331F085E09D
:102520008F1508F4B3CF802FDFCF94E09F1508F408
:10253000ADCFEACFFF2041F3D93369F4FFEF27EEA7
:1025400033E0F15020403040E1F700C000008D2F13
:102550000E942C119BCF8FE39CE90197F1F7F5CFF7
:102560008C2F86958695837069F0813009F08ECF27
:102570008D2F9C2F9370111102C090E080E00E947B
:102580000A2784CF8D2F9C2F9370111102C090E0E9
:1025900080E00E94F4267ACF8C2F837079F5111198
:1025A00075CF4D2F429546954770440F440F8D2FA0
:1025B0008F70042E01C0880F0A94EAF72D2F207126
:1025C000D4FF07C02FE030E001C0220F4A95EAF7A0
:1025D0002095C695C695C370822BC23049F058F439
:1025E000C13019F00E945C1451CF0E9457144ECF95
:1025F0000E9461144BCF0E94551448CF8695112339
:1026000011F08C2F8170882309F440CF4D2F429513
:1026100046954770440F440F8D2F8F70042E01C0D4
:10262000880F0A94EAF72D2F2071D4FF07C02FE0FE
:1026300030E001C0220F4A95EAF72095C695C6956D
:10264000C370822BC23049F058F4C13019F00E9497
:10265000A2141CCF0E949D1419CF0E94A71416CF5C
:102660000E946A1413CFCF70112329F08C2F0E947F
:102670007B148D2F39CF8D2F0E94A1118C2F0E949A
:10268000861404CFD23F51F160F4D03FB9F0D13F6E
:1026900081F0112309F449C0F110ADCE8C2F8F7158
:1026A00021C0D33F11F1D43FA1F78091DB0382FF1A
:1026B00026C08C2F8F71112311F314C0112349F000
:1026C00094E09F1508F4E2CE8C2F8F710E94921433
:1026D000DDCEE5E0EF1508F4D9CEF6CF8C2F8F7163
:1026E0001111CDCF0E947B14D1CE112329F08C2F54
:1026F0008F710E947314CACE0E947014C7CE11232A
:1027000049F0CF718C2F0E947B1463E08C2F0E94C4
:10271000BC18BCCE81E00E94D718F1E0FF1508F08C
:10272000B5CE82E00E94D718B1CEFF2079F0D93320
:1027300041F42FEF37EE83E0215030408040E1F745
:1027400004CFEFE3FCE93197F1F7FFCE8C2F8F71C7
:1027500096CFDF91CF911F910F91FF90EF90DF9077
:10276000CF90BF9008950F931F93CF93DF93EC0109
:10277000688179818A810E9438158C010E94AC148D
:102780000E945414B801CE01DF91CF911F910F9197
:102790000C94A811CF93DF93EC018B819C81892B42
:1027A00029F08881998189238F3F59F4DF91CF9156
:1027B0000895CE010E94B313CE01DF91CF910C9406
:1027C000C50ECE010E940A0F8111F3CF0E94481856
:1027D000882361F38A81882349F38091DB0382FD9A
:1027E000E5CF82E0DF91CF910C94D71890E080E0A4
:1027F0000E94F42690E080E00E940A270E946F1851
:102800000C948F180E9438180C94F6130E945F18CD
:102810000C94021492959F70963091F058F4925F48
:102820009F70923058F4803F19F030F4883E30F4B5
:1028300081E008959A5FF4CF843FD1F380E008955A
:10284000883EB0F3813FD1F7F3CFFC0180819181C5
:102850000E942E150C940A14CF93DF9300D000D061
:102860000F92CDB7DEB70F900F900F900F900F9093
:10287000DF91CF910895CF93DF9300D000D000D0A7
:10288000CDB7DEB726960FB6F894DEBF0FBECDBF2C
:10289000DF91CF91089508950C944B140E944C142D
:1028A0008093C8010C94F61308950C944E149091E3
:1028B000C801892B0C944E149091C80189230C9463
:1028C0004E149091C80189270C944E140C944B140B
:1028D0000C9466140E9468148093C7010C94F6133C
:1028E00080E00C946A1491E001C0990F8A95EAF790
:1028F000892F0C946A1421E030E001C0220F8A95E0
:10290000EAF78091C701822B0C946A1421E030E031
:1029100001C0220F8A95EAF720958091C701822392
:102920000C946A1421E030E001C0220F8A95EAF786
:102930008091C70182270C946A149091C701892B5A
:102940000C946A149091C70189230C946A14909195
:10295000C70189270C946A14089527E0929F800D7F
:102960001124982F977041E001C0440F9A95EAF71F
:1029700086958695869593E0899FF0011124EE5403
:10298000FE4F90E080E070E05191DF0111979B01D4
:10299000082E02C0369527950A94E2F721702195FA
:1029A0002527242325272C9301968330910561F751
:1029B000089527E0929F800D1124982F9770869597
:1029C0008695869523E0829FF0011124EE54FE4FF8
:1029D00050E040E080E0219130E0092E02C03695C1
:1029E00027950A94E2F721703327042E01C0220FA5
:1029F0000A94EAF7822B4F5F5F4F4330510559F736
:102A00000895CF92DF92FF920F931F93CF93DF939E
:102A10006C010091C7018091C801082BC7E0D0E08C
:102A200010E0FC2EC8010C2E02C0959587950A94E3
:102A3000E2F780FD0CC02197A0F7F12C8F2DDF91DC
:102A4000CF911F910F91FF90DF90CF900895B60125
:102A50008C2F0E94A01B019771F3F0CFCF93DF93CF
:102A6000EC010E940115BE01DF91CF910C94A01BD7
:102A70001F93CF93DF93EB019091B101992331F034
:102A8000CB01DF91CF911F910C942E15882379F003
:102A9000CB010E940115182F682FCE010E94AD14A2
:102AA000BE01812FDF91CF911F910C94A01BCB0110
:102AB0000E94D914182FF4CF1F93CF93DF93C091A6
:102AC000C90116E08091CA018C1304C0DF91CF9137
:102AD0001F910895D0E01C9FF0011D9FF00D11245F
:102AE000E553FE4F408151816281738184819581DC
:102AF0000E943B142196C770E5CF4091FB01509195
:102B0000FC016091FD017091FE018091FF019091A7
:102B100000020C943B14FF920F931F93CF93DF930B
:102B200080910002807FD1F48091FD018823B1F073
:102B30008091C9011091CA016091FB017091FC0163
:102B4000A091FE01B091FF01062F0723C091000163
:102B5000D091010196E0F92E181306C0DF91CF91B4
:102B60001F910F91FF90089590E0109711F00F3F83
:102B700019F401968770F0CFF89E9001F99E300D00
:102B80001124F901E553FE4F41814713F2CF4081F3
:102B90004613EFCF42814111ECCF438154814A1B50
:102BA0005B0B4C175D0728F7809100028F708061E6
:102BB00080930002F901E053FE4F80818F708061A5
:102BC00080838BEF91E00E94CA13DF91CF911F9118
:102BD0000F91FF900C945C15AF92BF92CF92DF9251
:102BE000EF92FF920F931F93CF93DF93CDB7DEB792
:102BF00061970FB6F894DEBF0FBECDBF8C0185E0A4
:102C0000F801DE011D9601900D928A95E1F7F80119
:102C1000E2808BEFC82E81E0D82E6091FE0170918A
:102C2000FF016115710509F45FC19091FB012091CD
:102C3000FC01892F82238F3F09F456C140815181C5
:102C4000A380B480F090FD01F501E61BF70BBF01F6
:102C5000E0910001F0910101FF2009F4F6C080919C
:102C60000002382F307F6E177F0708F0AFC0311198
:102C700079C0FE2C251323C0941321C0E1101FC07E
:102C80008F708061809300020E947D15C6010E94B2
:102C9000CA1380910002F80185838F2D61960FB6CB
:102CA000F894DEBF0FBECDBFDF91CF911F910F9182
:102CB000FF90EF90DF90CF90BF90AF900895AB283A
:102CC00029F0842F85238F3F09F027C180E0F82F5A
:102CD000F170DF2E80FF3CC08091C9012091CA01B4
:102CE00036E0821315C04D875E878D859E850E94D4
:102CF0002E15292F22952F702230F0F0243018F550
:102D00009F70F1F0F8019581907FD1F4D12C1EC015
:102D100090E0389FF001399FF00D1124E553FE4FEC
:102D20006181651306C06081641303C062816E1106
:102D30000FC001968770D5CF9F7011F0882331F3B3
:102D4000805E883018F3C8010E94CA13FD2CA5CFFD
:102D5000EE2009F4A2CF80910002816080930002EE
:102D6000F12C9BCF251306C0941304C0F801EE206C
:102D700009F487C0C8010E942514882319F1EE20A8
:102D800009F180910002803270F02091FB013091B6
:102D9000FC0138872F831986BB86AA868C87CE01D3
:102DA00007960E94CA1386E0F801ABEFB1E00190EC
:102DB0000D928A95E1F70E948B150E947D15FF24E4
:102DC000F3946BCFC8010E94CA13F9CF311113C01D
:102DD0007A2DB98AA88A6E2D89890E942C148BEFCE
:102DE00091E00E94CA1386E0F60111928A95E9F7F4
:102DF0000E947D15B5CF25130FC094130DC0E110AF
:102E00000BC0F8018583C8010E94CA1386E0F60151
:102E100011928A95E9F741CFC8010E9425148823B1
:102E200089F2EE2079F280910002803208F4BBCF63
:102E30002091FB013091FC013A8329831B82BD82E2
:102E4000AC828E83CE010196ACCF6E177F0708F05F
:102E50003EC0FE2CEE2009F4B5CF25132AC09413F2
:102E600028C08091000280FD1BC0982F907FC1F088
:102E7000F8018583903F31F0982F907F905F8F709D
:102E8000892B8583C8010E94CA1386E0F801ABEF45
:102E9000B1E001900D928A95E1F70E947D15FDCE7B
:102EA00086E0F801ABEFB1E001900D928A95E1F771
:102EB000F4CEC8010E942514811175CF80910002C3
:102EC000816080930002C8010E94CA13E6CE7A2D69
:102ED000B98AA88A6E2D89890E942C1486E0F60191
:102EE00011928A95E9F7D9CFEE2009F46BCFC8018A
:102EF0000E942514F82E882309F464CF86E0F80197
:102F0000ABEFB1E001900D928A95E1F78BEF91E084
:102F10000E949D100E948B15C0CF81E08E25D7CED8
:102F20001F93CF93DF93CDB7DEB72C970FB6F894EE
:102F3000DEBF0FBECDBF4F83588769877A878B87E7
:102F40009C87CE0107960E94EC15882369F08A853C
:102F50009B85892B39F04F815885842F85238F3F9E
:102F600009F071C016E05FC086E0FE013796DE0111
:102F7000119601900D928A95E1F78A859B85892BA0
:102F800089F38F81988589238F3F61F32091CA014E
:102F900030E0C9010196877099274091C90148170F
:102FA000190671F40E9406141092CA011092C90108
:102FB00086E0EBEFF1E0DF011D928A95E9F7D2CFD1
:102FC00096E0929FD001939FB00D1124A553BE4F60
:102FD000FE01319601900D929A95E1F78093CA0116
:102FE0000E945C15BFCF819FC001112485539E4F65
:102FF0000E94EC158823E9F0E091C9011E9FF001C1
:103000001124E553FE4F4081518162817381848197
:1030100095810E943B148091C90190E001968770D0
:1030200099278093C9018091C9019091CA018913A0
:10303000DACF2C960FB6F894DEBF0FBECDBFDF916E
:10304000CF911F91089569857A858B859C850E9413
:103050003B1488CF682F80910201909103010C945A
:103060006827682F80910201909103010C946A27D0
:1030700080910201909103010C946C2780910102D0
:1030800085958595859508958091010287700895AD
:1030900090910102977081E009F480E00895809199
:1030A0000C02089590910C02892B80930C020895D4
:1030B000809590910C02982390930C0208951092A1
:1030C0000C02089590910B02892B80930B020895B6
:1030D000809590910B02982390930B020895109283
:1030E0000B02089580910202089508950C947518BA
:1030F0009091DB0392FD08C090910202981721F095
:10310000809302020C94761808958091020288231D
:1031100029F01092020280E00C9476180895E09154
:103120000201F091030180910C028083E091020181
:10313000F0910301808190910B02892B8083909103
:103140000202992381F0E0910201F0910301808154
:10315000892B808380910201909103010E94202796
:1031600081110E94851880910201909103010C94B5
:10317000E92608950C94B9189091DB0392FD10C0D4
:1031800098E0899F90011124622B609301020E94B4
:103190007B14809101028595859585950C94BA18CC
:1031A0000C947B141092010280E00C94BA18909158
:1031B00001028095892380930102282F277091F4C2
:1031C000282F082E000C330B9217130659F09091FC
:1031D000DB0392FD07C08595859585950E94861431
:1031E0000C94D21808959091DB0392FB222720F9CA
:1031F000281769F080FB92F99093DB038091DA0342
:103200009091DB030E943E1982E00C94D718089538
:103210008091DB0382FB882780F991E089270C9459
:10322000F31881E00C94F31880E00C94F3186FEF1E
:103230007FEF90E080E00C94472C90E080E00E94CB
:10324000232C893E9E4F11F40C94061E80E00895B5
:1032500082E090E00C941B2C83E090E00C941B2CFB
:10326000CF9384E090E00E941B2CC82F82E290E074
:103270000E941B2C982F8C2FCF910895CF93C92F8C
:10328000682F84E090E00E94292C6C2F82E290E06D
:10329000CF910C94292CAB01BC018FE090E00C94F1
:1032A0003B2CAB01BC0183E190E00C943B2C60E033
:1032B00070E0CB010C94511960E070E0CB010E94EA
:1032C0004B190C94571969EE7EEF90E080E00E9454
:1032D000472C60E082E090E00E94292C60E083E0CF
:1032E00090E00E94292C1092C80160E084E090E0F8
:1032F0000E94292C60E082E290E00E94292C60E08C
:1033000085E090E00E94292C60E086E090E00E9439
:10331000292C6FEF87E090E00E94292C40E050E0DC
:10332000BA0188E090E00E943B2C60E08DE090E0E4
:103330000E94292C40E050E0BA0188E190E00E9410
:103340003B2C60E087E190E00E94292C40E050E0B7
:10335000BA018CE190E00E943B2C70E060E080E2DA
:1033600090E00E94472C40E050E0BA0188E190E0F4
:103370000E943B2C80E00E941F1E0E944C1E0C9459
:103380005C190C946319682F8EE090E00C94292C42
:103390000E94FB2760931C0270931D0280931E0203
:1033A00090931F02609318027093190280931A027F
:1033B00090931B0208950E94FB2760931C02709358
:1033C0001D0280931E0290931F026093140270935B
:1033D0001502809316029093170208950895089598
:1033E0000C94EF1908950C94F2198EE79CE10E9459
:1033F000D3260E94EE190C94F01981E008950C94E4
:10340000FD19089508950E94011A0C94021A0E9451
:10341000981C0C9444100E94E6270E945B1E0E9498
:103420005E1D0E94071A80E00E949E1F0E948A244F
:103430000C94F3199F92AF92BF92CF92DF92EF92CA
:10344000FF920F931F93CF93DF93CDB7DEB72A97E9
:103450000FB6F894DEBF0FBECDBF0E94731DC82EFD
:1034600081110E94C8198DE0A82E82E0B82E10E0CC
:1034700000E0902E802F0E94B81CE82EF501F190FC
:103480005F01F81609F445C08091200281FD0E9479
:10349000BE1C8F2D8E25D12CFF24F394982F9F21B5
:1034A00099F10E94FF19882399F0DE829F82EF2014
:1034B00081E009F480E088870E94EF278160782FFF
:1034C0009A8789874E815F8168858A850E945F100F
:1034D000F801E35FFD4F8081F826F08281E0C110A2
:1034E00001C080E02A960FB6F894DEBF0FBECDBFB4
:1034F000DF91CF911F910F91FF90EF90DF90CF90D0
:10350000BF90AF909F900895D394FF0CF7E0DF1227
:10351000C5CF0F5F1F4F0730110509F0AACF8FEFFE
:1035200089838A831B820E94EF278160782F9D8385
:103530008C8349815A816B818D810E945F10CECF2F
:10354000CF93DF930E941A1AD82F0E949C24C82F71
:1035500081110E94DB190E947621D11101C0C11195
:103560000E943D20DF91CF910C945410CF93DF93B4
:103570000E94A41BEC01811522E59207E8F5811554
:1035800031E5930708F0ACC0883E910510F5803E08
:10359000910570F5883A910570F4853A910508F027
:1035A00078C08130910521F1009711F1049700F561
:1035B000D0E0C0E01DC08F3B9105D0F7C85AD0E0E5
:1035C000CC0FDD1FC65BDE4F0990D881C02DD464BF
:1035D0000FC0811540E5940708F066C0C11580E46E
:1035E000D80708F05EC0CE019A9581159F4100F77B
:1035F000CE01DF91CF910895811536E5930718F537
:10360000811545E5940708F083C0C11584E5D80706
:1036100008F079C09C2F969596959E0123703327CC
:10362000C115D34508F461C0C1E0D0E002C0CC0FA1
:10363000DD1F2A95E2F730E2939FC0011124C82BC9
:10364000D92BDA68D5CFC1158AE5D80778F4C1152A
:1036500099E5D90708F066C0C11528E5D20708F436
:10366000A7CFDC2FCC27C06FD06AC2CFCE01905637
:103670008115904208F09CCF8D2F8F710E943B1CCA
:1036800090E0982F882788279F719C012C2BE901B7
:1036900047C0C55AD0E0C858DE4FC881D0E0D064DA
:1036A000A7CFDF70D06AA4CFE4E096958795EA951E
:1036B000E1F783702C2F26952695237040E2249FF6
:1036C00090011124382B8C2F8370C1E0D0E002C010
:1036D000CC0FDD1F8A95E2F7C22BD32BDC6888CF95
:1036E000D82FCC27C16FD06A83CFC1E0D0E002C011
:1036F000CC0FDD1F2A95E2F720E2929FC001112432
:10370000C82BD92BEBCFDC2FCC27C46FD06A70CF5E
:103710000E943B1CC82FD0E0DC2FCC27CC27DF71C8
:10372000D06266CF8C2F8F700E943B1C34E0D69500
:10373000C7953A95E1F7CF709C2FEC01D06958CF2F
:103740000E94B6230C94B61A82389105B1F1B0F4F8
:103750008133910509F475C048F48932910509F463
:1037600069C08A32910509F473C0089585339105C3
:1037700009F459C08933910501F10895833E9105FB
:10378000A9F138F4803E9105F9F0823E910549F1A6
:103790000895863E9105A9F1873E9105C9F1843EC1
:1037A000910519F52091DB0321FF1FC08091DA03F9
:1037B00084FD14C087EE90E008952091DA03237011
:1037C000A1F080EE90E008952091DA0320FD47C03B
:1037D0003091DB0330FF09C024FF44C090E080E05B
:1037E00004C02091DA0322FDF7CF08952091DA0377
:1037F00022FD3BC03091DB0330FDE3CF24FFF5CF4A
:10380000EDCF2091DA0323FFF0CF24FDE7CFD2CF15
:103810002091DA0323FD2CC03091DB0331FFEECF82
:1038200084EE90E008952091DA0325FFDECF89E24F
:1038300090E008952091DA0325FFD7CF85E390E04B
:1038400008952091DA0326FFD0CF8AE290E0089510
:103850002091DA0326FFC9CF81E390E0089589E340
:1038600090E0089583EE90E0089582EE90E0089550
:1038700086EE90E008959091DA0392FF06C0282F1B
:1038800028712830F9F4877F846093FF06C0282FC1
:1038900028712831F1F4877E84612091DB0320FFB9
:1038A00006C0382F38713830D9F4877F816021FF06
:1038B00006C0282F28712831D1F4877E816194FDBC
:1038C000877E0895282F24712430F9F68B7F886035
:1038D000DCCF282F2471243101F78B7E8861DDCF66
:1038E000382F3171313019F78E7F8860E0CF282F63
:1038F0002171213121F78E7E8861E1CF80E008952A
:103900000C9417190E94731D8FE39CE90197F1F73E
:1039100000C000000E94731D80E00E94B81C80FF60
:1039200004C00E94801C0C94562808950C94821C9C
:103930000E941D19811102C00E94C1190E942819FC
:10394000809320020E9430199093DB038093DA0366
:103950000E94961C0E942C190E9455148091C70148
:103960000C94681408950C94B21C08950C94B51C22
:10397000E82FF0E0ED51FC4F80810895089580EA32
:103980008A95F1F7089500C008950C94BF1CF8942F
:10399000E82FE295EF70F0E031A1282F2F7081E041
:1039A00090E001C0880F2A95EAF7982F909593230D
:1039B00091A392A1892B82A378940895CF93DF934A
:1039C000C2E8D1E089918F3F11F00E94C71C81E0CD
:1039D000C938D807B9F7CBE7D1E089918F3F11F00B
:1039E0000E94C71C81E0C238D807B9F7DF91CF9198
:1039F0000895CF92DF92EF92FF920F931F93CF9390
:103A0000DF93EC01D62E062F10E0C8018E579E4F93
:103A10007C01FC0180818F3F09F445C0F894E82FB8
:103A2000E295EF70F0E091A18F7021E030E001C0ED
:103A3000220F8A95EAF7892F822B81A382A12095F4
:103A4000282322A378940E94C31CEBE7F1E042E80C
:103A500051E031E0C12C21912F3F71F1A22FA295AD
:103A6000AF70B0E090968C9190E02F7002C0959569
:103A700087952A95E2F780FD1FC0832FC82A330F50
:103A80004E175F0741F7F70180818F3F11F00E94C9
:103A9000C71C61E0C11001C060E08D2D0E94C51CF3
:103AA000C00FD11FC882DF91CF911F910F91FF905E
:103AB000EF90DF90CF90089580E0E0CF0E94DE1C71
:103AC00087E0E3EEF3E0DF01982F1D929A95E9F786
:103AD000ECEDF3E0DF011D928A95E9F787E00E94A3
:103AE000BC1D0C94F60EFF920F931F93CF93DF93A0
:103AF00000D000D000D00F92CDB7DEB78E010F5F9F
:103B00001F4F87E0F80111928A95E9F7F12C6F2D8C
:103B1000C8010E94F91CF394F7E0FF12F8CF47E0C8
:103B200050E0B8018CED93E00E940E2CFF24F3943A
:103B3000009709F4F12C892B41F087E0F801ACEDF6
:103B4000B3E001900D928A95E1F72F2D47E063EEE7
:103B500073E08CED93E00E94BD1D0E94F80E8F2D46
:103B600027960FB6F894DEBF0FBECDBFDF91CF9181
:103B70001F910F91FF9008950895FF920F931F9347
:103B8000CF93DF93F82E092F162FD72FC42F222380
:103B900049F081E0809323020E94EF279093220254
:103BA00080932102809123028823A1F08091210239
:103BB000909122020E940728059760F0EF2DF02FC8
:103BC000A12FBD2FCE0FDF2FD11DEC17FD0741F424
:103BD00010922302DF91CF911F910F91FF900895D2
:103BE00081918D93F2CF0E947B280E940B1A0C9436
:103BF0008C280E948F270E946B280E94F5190E9432
:103C0000F31D0E949A280E94031AFBCF83E290E0E2
:103C10000E941B2C823289F484E290E00E941B2CCB
:103C2000833059F485E290E00E941B2C91E08332AE
:103C300009F090E0892F8170089580E0FCCFCF9348
:103C4000C82F6FEF811162E283E290E00E94292C7D
:103C50006FEFC11163E084E290E00E94292C6FEFC6
:103C6000C11163E285E290E0CF910C94292C089574
:103C700086E290E00E941B2C682F70E090E080E0CC
:103C800008950895CF93C62F0E94411E6C2F86E29F
:103C900090E0CF910C94292C80E00E941F1E60E0E0
:103CA00070E0CB010E94421E0E942E230E941A2423
:103CB00081E00C941F1E0E94371E0E94381E0E9435
:103CC000411E0E94061E811102C00C944C1E0895D4
:103CD000CF93FB01C281CC2309F19C0122513F45C6
:103CE0002031310520F582510E942A24C0E08C2F1A
:103CF000CF91089581E00E947B1443E062E081E06F
:103D00000E94ED0EF3CF81E00E94861443E062E052
:103D100081E00E94ED0EEBCF82E0F6CF8031FFE52F
:103D20009F0789F381319F45B9F3C1E0E0CF80312E
:103D3000EFE59E07F9F281319F45C9F682E0DBCFBE
:103D40002FEFFC0120830895EF92FF920F931F93B2
:103D5000CF93DF93EC01062FE881E150E33108F0C7
:103D60005EC0F0E0E559F34D0C94012C198289E016
:103D70008A83602FCE01DF91CF911F910F91FF9029
:103D8000EF900C9486298981823069F0833071F03C
:103D90008130D9F40E94FB270E94072C6A837B8321
:103DA0008C839D83E6CF0E94381EF6CF7E0182E091
:103DB000E80EF11C10E0812F0E94B81CF7018193DE
:103DC0007F011F5F1730B9F7D4CF602FCE010E945B
:103DD000A01ECFCF89818230C1F76A817B818C811F
:103DE0009D810E94072C0E94421EC3CF4B816A8195
:103DF00089810E9400239827892798279D838C8397
:103E0000B8CF2C813D813227232732274B816A810D
:103E100089810E941923ADCF0E942E23AACF8FEF54
:103E20008883A7CF0E94C3238983A3CF0E94C52381
:103E30009827892798279A8389839BCF6B8170E085
:103E400089819A81AE014C5F5F4F98278927982717
:103E50000E94C8238ECF6B8170E089819A81AE0168
:103E60004C5F5F4F9827892798270E94EF2381CFC7
:103E70000E941A247ECF0E94EE22D6CF6B8170E082
:103E800089819A81AE014C5F5F4F982789279827D7
:103E90000E9466236ECF6B8170E089819A81AE01AA
:103EA0004C5F5F4F9827892798270E948C2361CF0A
:103EB000CF92DF92EF92FF920F931F93CF93DF93F6
:103EC0006C017B0164E670E088E70E94D225EC017A
:103ED00097FD12C010E000E0F601E00FF11F8491A1
:103EE00064E670E00E944C26EC01892B29F40F5FF8
:103EF0001F4F0E151F0581F70E94CF26CE01DF91BF
:103F0000CF911F910F91FF90EF90DF90CF90089588
:103F10000895EAEEF3E080E092E0DF019C011D925B
:103F200021503040E1F7F093F105E093F0058FEF79
:103F30009FEF90934A028093490208950E94881F40
:103F40000E94FC0D8093450280FD0FC080E88093A5
:103F500044020E94CC256DE070E087E996E10E9462
:103F6000581F892B21F080E0089580E2F0CF8091E6
:103F7000450263E070E081FD26C084E996E10E947D
:103F8000581F892B81F76DE070E084E896E10E946C
:103F9000581F892B41F70E94FB27605A75418F4FAC
:103FA0009F4F6093EC057093ED058093EE05909321
:103FB000EF050E94891F81E08093480280934702A9
:103FC00010924602089581E996E1D9CF20914402EA
:103FD00036E0839FC0011124629F800D911D112442
:103FE000811522E0920714F090E080E086519C4F0A
:103FF0009093F1058093F0050895CF93DF9320917E
:10400000F0053091F1052A5E3340A901460F571F94
:104010004130524020F060E072E0621B730B40912F
:10402000490250914A02FC01C901620F731FC1E0AD
:10403000D0E08617970738F050934A024093490220
:10404000DF91CF9108952491DC01A651BC4F3C91A2
:10405000321781F02C939C01A5E036952795AA95FF
:10406000E1F7DE0102C0AA0FBB1F2A95E2F79D010E
:104070004A2B532B01963196DCCF80914802811157
:1040800003C08091470208950E94FB27605A754142
:104090008F4F9F4F6093EC057093ED058093EE0575
:1040A0009093EF05809147028111EBCF62E070E0C1
:1040B00082E896E10E94581F892B19F781E08093CE
:1040C0004702DFCF2F923F925F926F927F928F9243
:1040D0009F92AF92BF92CF92DF92EF92FF920F9397
:1040E0001F93CF93DF9380914802882369F020913A
:1040F000490230914A022115310531F08091460282
:1041000061E070E0882399F0DF91CF911F910F91CA
:10411000FF90EF90DF90CF90BF90AF909F908F90E7
:104120007F906F905F903F902F9008958F5F082F42
:1041300010E01B01082E02C0220C331C0A94E2F787
:10414000A90142215321452B89F39091450290FD0D
:1041500044C08295880F8076809306019801369539
:1041600027953695279520930901815E8093070155
:1041700010920A0124E630E047E050E064E071E08C
:1041800088E70E947B26892B09F0BECFA80125E095
:10419000440F551F2A95E1F78091450280FD2BC001
:1041A00046515C4F04E610E020E230E060E488E72E
:1041B0000E94A226892B09F0A7CF0E943D20E10191
:1041C000C095D0958091490290914A02C823D92385
:1041D000D0934A02C093490297CF880F880F880F67
:1041E0008093060110920901895F8093070183E0A3
:1041F00080930A01BFCFE4E2F2E080E2DF011D928A
:104200008A95E9F7ADE8B1E009E811E081E9C82E47
:1042100081E0D82E97E0592E772473948D91E80190
:1042200029918E01240F352F311D26513C4FE82F47
:10423000F0E0EC5DFD4F90E080E0652C681A872C83
:10424000082E01C0880C0A94EAF77901A12CE70135
:10425000B9907E01B820662D6A196770962E062ED9
:10426000000C770BDB2D01C0DD0F9A94EAF77195F6
:10427000619571096770772701C0B6946A95EAF76E
:10428000BD2A6081962E9B289082A39468E0A61296
:10429000DECF019631968830910579F6CA16DB0695
:1042A00009F0BCCF04E610E020E230E044E252E046
:1042B0007DCF8091470290914802911103C091E017
:1042C00089270895882369F062E070E080E896E12C
:1042D0000E94581F892B19F080914702089510926F
:1042E000470280914702EBCF81E008950F931F931F
:1042F00080914802882391F18091EA059091EB0525
:104300000E9407288234910560F00E94EF27909365
:10431000EB058093EA0560E080E00E94E61F0E94C2
:10432000FE0D0E946220809147028823B9F00E940E
:10433000FB270091EC051091ED052091EE053091E1
:10434000EF05601B710B820B930B6F3F7F4F8F4FFD
:104350009F4720F41F910F910C9459211F910F91A9
:104360000895CF93DF93EC01FB018281882309F448
:1043700033C1C330FDE5DF07C0F5CA3F9CE5D9076F
:1043800030F49E0122503C4524313105B0F50E94A5
:1043900030199093DB038093DA03C1318CE5D807A1
:1043A00009F4EEC008F069C0C930ECE5DE0709F495
:1043B000D5C0C8F5C5308CE5D80709F4C7C000F5ED
:1043C000C330ECE5DE0709F4B9C008F0BBC0C23069
:1043D000DC4509F4ADC08091DA039091DB030E94C3
:1043E0003E190E94061480E008C0C136EDE5DE07E4
:1043F00071F2C53AFDE5DF0751F2DF91CF910895E3
:104400008091DA038062C7309CE5D90709F493C034
:104410008091DA038061C830DC4508F48CC080915B
:10442000DA03806488C08091DA038B7FCD30FCE5AD
:10443000DF0709F480C098F48091DA038E7FCB30D7
:104440009CE5D90709F477C08091DA038C60CC3001
:10445000DC4508F470C08091DA038D7F6CC08091D8
:10446000DA038F7ECF30FCE5DF0709F464C008F47F
:104470007BC08091DA038F7D5EC0CD3F9CE5D9077C
:1044800009F47AC050F5C531FCE5DF0709F486C0B0
:1044900098F48091DA03837FC3319CE5D90709F44E
:1044A0004AC008F471C00E9406149091DA03892F63
:1044B00097FB87F980583FC0CB3FFCE5DF0709F445
:1044C00049C008F055C08091DB038160CA3FDC45DC
:1044D00009F081CF8093DB037ECFC130EDE5DE07AD
:1044E00009F468C0A8F4CF3F8CE5D80709F452C09E
:1044F0008091DB038360C115DD4560F38091DB03B0
:10450000982F909591708E7F892B90FB81F9E2CF47
:10451000C136EDE5DE0709F451C0C53AFDE5DF0718
:1045200009F453C0C230DD4509F055CF80E043C0E7
:104530008091DA0381608093DA034DCF8091DA03B2
:104540008260F9CF8091DA038460F5CF8091DA033D
:104550008860F1CF8091DB038260BCCF0E9406149B
:104560008091DA038068E7CF8091DA03877FE3CF19
:104570008091DB038E7FAECF8091DB038D7FAACF4E
:104580008091DA038F7BD7CF0E9406148091DA03E3
:104590008F77D1CF8091DB038C7F9CCF8091DA0322
:1045A00082FB992790F921E0922790FB82F990FBFA
:1045B00083F9C1CF81E00E94C3190DCF9091DA0336
:1045C000892F8F7E94FF8061B6CF9091DA03892F77
:1045D0008E7F90FF8160AFCF81E00FCF84E00895A0
:1045E00050E0440F551F9EE0699F400D511D11245E
:1045F00092E6899F400D511D1124CA0187960895A6
:104600000F931F93CF93DF930E94F0228C010E949F
:104610001B2CC82FD0E0DC2FCC27C80101960E94AC
:104620001B2C9E01282BC901DF91CF911F910F9167
:1046300008950F931F93CF93DF93122F032F0E94A0
:10464000F022EC01602F0E94292C612FCE010196EF
:10465000DF91CF911F910F910C94292CAF92BF92B3
:10466000CF92DF92EF92FF921F93CF93DF9388E474
:10467000C82E84E1D82ED0E07601C0E014C0F50148
:1046800025913491412F6C2F8D2F0E94192382E0A8
:10469000A80EB11C1F5F173091F78EE0E80EF11CD9
:1046A000CF5FC73019F0570110E0E9CFDF5F82E636
:1046B000C80ED11CD43001F7DF91CF911F91FF902C
:1046C000EF90DF90CF90BF90AF900895EF92FF9260
:1046D0000F931F93CF93DF93EC018A017C01E60EC9
:1046E000F71ECE018796CE15DF0539F4DF91CF9105
:1046F0001F910F91FF90EF900895C83821E0D207E5
:1047000040F40E941B2CF80180830F5F1F4F2196FD
:10471000E8CFF8011082F9CFCF92DF92EF92FF92AB
:104720000F931F93CF93DF937C016A018C01060FD7
:10473000171FEC01CE018796C017D10749F4DF910E
:10474000CF911F910F91FF90EF90DF90CF90089540
:10475000C83821E0D20740F4FE01EE19FF09EC0D44
:10476000FD1D60810E94292C2196E4CF462F8430C4
:1047700038F4773028F4673018F4672F0C9400234E
:1047800090E080E0089580E1089581E592E0089549
:10479000EF92FF920F931F93CF93DF93EC018A0167
:1047A0007C01E60EF71ECE0181559E4FCE15DF052A
:1047B00039F4DF91CF911F910F91FF90EF90089501
:1047C000C13522E0D20740F40E941B2CF8018083FF
:1047D0000F5F1F4F2196E7CFF8011082F9CFCF92DC
:1047E000DF92EF92FF920F931F93CF93DF937C01A1
:1047F0006A018C01060F171FEC01CE0181559E4FF7
:10480000C017D10749F4DF91CF911F910F91FF900D
:10481000EF90DF90CF900895C13522E0D20740F4A9
:10482000FE01EE19FF09EC0DFD1D60810E94292C8F
:104830002196E3CFCF93DF93CFEAD1E060E0CE01C2
:104840000E94292C2196C11584E0D807B9F7DF9181
:10485000CF910895DF92EF92FF920F931F93CF9322
:10486000DF9300D000D0CDB7DEB7F82E8FE08F15E4
:1048700040F08FEF93E00E941B2C0FEA11E0882399
:10488000C1F00F900F900F900F90DF91CF911F917B
:104890000F91FF90EF90DF900895011584E01807C5
:1048A00081F3C8010E941B2C811101C0FA940F5F93
:1048B0001F4FF110F2CF19821A821B821C82DD2455
:1048C000D39478018FEFE81AF80AC8010E941B2CD4
:1048D00089831A828823A9F29FEF980F933078F486
:1048E0008A83D9820E5F1F4FC7010E941B2C8B83C6
:1048F000882339F2CE0101960E943A10E2CF870157
:10490000F9CF8FE891E00197F1F700C0000008951A
:104910000C94620D24982C9A25982D9A0E9481243B
:1049200083B1829581701D9905C090E0892B809399
:104930004D02089592E0FACFE0914D02EE0FEE0F96
:10494000E0934D0243B144FB882780F943B145FB16
:10495000222720F945FF02C022E030E0822BE82B1D
:10496000E0934D02EF70F0E0EF56FE4F80819091A2
:104970004C02890F80934C0220E0843054F08091E7
:104980004B028F5F80934B0260E080E00E9488249E
:1049900021E080914C028D3F54F480914B02815074
:1049A00080934B0261E080E00E94882421E08091A6
:1049B0004C02082E000C990B64E070E00E94ED2B75
:1049C00080934C02822F0895CF93DF93EB018631C1
:1049D0009C4511F50E944F189A81992399F08A7A83
:1049E00091E009F490E090934E02811109C089E2B0
:1049F0000E942A180E948F1880E0DF91CF910895BD
:104A000085E3F6CF80914E02811104C089E20E94B5
:104A10003118F0CF85E3FBCF81E0EFCF0F931F93E9
:104A2000CF93DF93C42FD22FFC0182818823C9F05A
:104A3000409351020E94EF279093500280934F02BF
:104A400080E28C0F883008F050C0C77081E001C050
:104A5000880FCA95EAF7DF91CF911F910F910C94BF
:104A60009A1110915102141335C080914F02909108
:104A700050020E940728883C910560F5C0E2CD0FE6
:104A80001D17B9F080E2810F883040F4177081E083
:104A900001C0880F1A95EAF70E94A111C83048F4A6
:104AA00081E09D2F977001C0880F9A95EAF70E94C8
:104AB0009A11802F0E949211C830B8F4D77081E00B
:104AC00001C0880FDA95EAF7DF91CF911F910F911E
:104AD0000C94A11180E28C0F883038F4C77081E00B
:104AE00001C0880FCA95EAF7EFCFDF91CF911F91F0
:104AF0000F9108950F939C01CB01233F4CE53407A0
:104B000059F1A8F4283DFCE53F0701F1293D4CE5AA
:104B10003407D1F1273D3C4591F406E221EE41EE08
:104B200067ED7CE50E940E2580E00F910895253FFA
:104B3000FCE53F07E9F0B0F0263F3C45F9F0FC0109
:104B40008281882339F110925102EFCF07E225EEDE
:104B500045EE68ED7CE5E6CF06E221EE40EE63EF40
:104B60007CE5E0CF07E225EE44EE64EF7CE5DACFAA
:104B700006E221EE42EE65EF7CE5D4CF07E225EEBA
:104B800046EE66EF7CE5CECF08E221E045EE69ED2A
:104B90007CE5C8CF81E0C9CF1092B9008CE080934A
:104BA000B80008959F92AF92BF92CF92DF92EF929A
:104BB000FF920F931F93CF93DF93B82EEB010E94C8
:104BC000EF276C01EE24E394F12CC431D10560F0A1
:104BD00025E0E22EF12CCF3FDC0731F0CE0164E17D
:104BE00070E00E94D92B7B0184EAA82E94E8992ECC
:104BF0001092BC00A092BC000E94EF278C01809113
:104C0000BC0087FF0DC08091B900887F883039F1E2
:104C10008091B900887F803111F10FEF1FEF09C03B
:104C20000E94EF27801B910B8E159F0540F30EEF1E
:104C30001FEFCF3FDC07E1F2C6010E9407288C1767
:104C40009D07B0F2C801DF91CF911F910F91FF90A6
:104C5000EF90DF90CF90BF90AF909F900895B0926B
:104C6000BB009092BC000E94EF278C018091BC0099
:104C700087FF0AC08091B900887F883111F08034A5
:104C800061F610E000E0DECF0E94EF27801B910B61
:104C90008E159F0558F3CBCF0F931F93CF93DF93C0
:104CA000EB018093BB0084E88093BC000E94EF2757
:104CB0008C018091BC0087FF11C02091B900287F32
:104CC00081E090E0283211F490E080E091958195A8
:104CD0009109DF91CF911F910F910895CF3FDC078C
:104CE00041F30E94EF27801B910B8C179D0708F35F
:104CF0008EEF9FEFEECFCF92DF92EF92FF920F9366
:104D00001F93CF93DF936B018A017901B9010E9450
:104D1000D225E6010C0D1D1DC017D10761F424E951
:104D20002093BC00DF91CF911F910F91FF90EF90E6
:104D3000DF90CF90089597FDF2CFB70189910E943F
:104D40004C26EACFCF92DF92EF92FF920F931F9300
:104D5000CF93DF93C62F6A017901B8010E94D22553
:104D600097FD0CC0B8018C2F0E944C26E601EC0C7C
:104D7000FD1CCE15DF0511F097FF0CC024E9209330
:104D8000BC00DF91CF911F910F91FF90EF90DF90CA
:104D9000CF900895B80189910E944C26EACF84E90A
:104DA0008093BC0008959093A3018093A20108957D
:104DB00090935702809356020895E0915602F09125
:104DC0005702309721F00190F081E02D099480E0A6
:104DD0000895E0915602F0915702309721F0028039
:104DE000F381E02D099408952091540230915502E9
:104DF0002817390771F09093550280935402E0917F
:104E00005602F0915702309721F00680F781E02D8D
:104E100009940895209152023091530228173907BE
:104E200071F09093530280935202E0915602F091F8
:104E30005702309721F00084F185E02D0994089500
:104E40009C012E5F3F4FAC01485F5F4F80E024170D
:104E5000350709F40895F90191919F019923B9F358
:104E60008F5FF5CF662349F0FC01329608962191B9
:104E7000261729F0E817F907D1F780E0089581E0B7
:104E800008959C01FC0132969FEF80E04191461706
:104E900051F09F3F19F4411101C0982F8F5F863068
:104EA000A9F79F3F09F40895290F311D97FD3A9501
:104EB000F90162830895FC01329608962191261328
:104EC00003C0DF0111971C92E817F907B9F708959D
:104ED0000C9441270C945B27029626E0FC0111926A
:104EE0002A95E9F70895089508950C947427089574
:104EF00008950C947327CF930E9477270E94731D07
:104F00000E947827C0E08C2F0E94B81C811105C038
:104F1000CF5FC730C1F7CF91089581E0FCCF0895EE
:104F20001F921FB61F9211248F939F93AF93BF932D
:104F300080915802811113C08091F2059091F30580
:104F4000A091F405B091F5054196A11DB11D809386
:104F5000F2059093F305A093F405B093F505BF9186
:104F6000AF919F918F911F901FBE1F9018958091B8
:104F70005B02882331F10E94620F1092580288E18F
:104F800090E020E40FB6F894A895809360000FBEDF
:104F90002093600083B7817F846083BF83B7816083
:104FA00083BF7894889583B78E7F83BF0FB6F894BC
:104FB000A8958091600088618093600010926000E5
:104FC0000FBE08950E9406140C94680F82E084BD01
:104FD00093E095BD9AEF97BD80936E0008952FB72B
:104FE000F8948091F2059091F305A091F405B091A9
:104FF000F5052FBF08952FB7F8946091F2057091D1
:10500000F3058091F4059091F5052FBF08959C015B
:105010004FB7F8948091F2059091F305A091F405B3
:10502000B091F5054FBF821B930B0895CF92DF928D
:10503000EF92FF922FB7F894C090F205D090F3054D
:10504000E090F405F090F5052FBFA7019601261B0F
:10505000370B480B590BCA01B901FF90EF90DF9055
:10506000CF90089578941F921FB61F9211248F93AA
:105070009F93AF93BF938091F2059091F305A09118
:10508000F405B091F5050196A11DB11D8093F205BF
:105090009093F305A093F405B093F505BF91AF91FC
:1050A0009F918F911F901FBE1F90189588E198E0E7
:1050B0000FB6F894A895809360000FBE909360009F
:1050C000A895F894D8E0CEEF28E3299320E029931F
:1050D00014BEFFCF08950E94EF2790935A02809349
:1050E000590280E890E00FB6F894809361009093A5
:1050F00061000FBE08950E94BE2B539A80E081503C
:1051000019F4539878940895A895EFE9FFE0319742
:10511000F1F700C00000F3CF0E94C0290E94D826FA
:105120002FEF80E792E0215080409040E1F700C0EF
:105130000000089580911D06882369F110921D06D4
:105140000E94EF2790935A028093590280915B024C
:10515000882341F010925B020E94E22780915B025B
:1051600081111DC00E94CE2A80912306882329F038
:105170008091010684FD0E94A01A0E942D290E94A0
:10518000CE2A809123068823C9F180910D0684FFE1
:1051900035C00C94B42980915B02882301F10E94F0
:1051A000B7270E947B27882349F1F8942AB15B9A9C
:1051B000822F8C608AB99BB13CE093279BB94FE763
:1051C00088E391E0415080409040E1F700C000004A
:1051D0008BB183278BB92AB95B9878940895809115
:1051E000590290915A020E940728069708F4B6CFF8
:1051F00081E080935B020E94B727B0CF0895809131
:1052000011030895089590916102981307C02091A9
:105210005F023091600226173707A9F08093610280
:105220007093600260935F0280935C0270935E02F1
:1052300060935D0280913A0684FF05C063E08CE5CF
:1052400092E00C94C62A0895BC0184E00C940329D2
:10525000BC0183E00C9403290895CF93DF93CAE047
:10526000D0E08091010684FF1AC080918E02909157
:105270008F02981789F028E0829FC001112468E00E
:1052800080579D4F0E94C22A80918E0290E0019625
:105290008F70992780938E02DF91CF9108950E949D
:1052A000CE2A8FE99FE00197F1F700C00000219717
:1052B000C1F6F2CFCF93DF93EC01A0918F02B0E063
:1052C000CD0101968F70992720918E02281779F0D1
:1052D00093E0AA0FBB1F9A95E1F7A057BD4F98E046
:1052E000FE0101900D929A95E1F780938F020E9442
:1052F000CE2A0E942D2988E0FE01A6E8B2E00190A6
:105300000D928A95E1F7DF91CF9108950F931F9346
:10531000CF93DF93EC01603211F58C01005E1F4FDB
:1053200002C00E94CE2A80910D0684FFFACF68E069
:10533000CE010E94CA2A2896C017D107A1F78091F2
:105340000D0684FF09C060E090E080E0DF91CF911E
:105350001F910F910C94CA2A0E94CE2AF0CFDF91A0
:10536000CF911F910F91089580916502803239F499
:1053700060E286E692E00E94A41E10926502089503
:105380008BE091E00895FC01808180768032F1F419
:105390008181813061F484819581892BB9F486E81B
:1053A00092E090931F0680931E0688E00895823055
:1053B00041F480E193E090931F0680931E0681E004
:1053C00008958A3029F483818093100380E0089542
:1053D0008930E1F7828193818115924069F484815B
:1053E0009581892B49F481E08093640286819781BD
:1053F00090936302809362028FEF0895FC01809185
:10540000620290916302892B61F080916402813085
:1054100041F4908190931103109263021092620202
:1054200008958FEF0895683019F01092650208957D
:10543000209165022931C8F7FC01A22FB0E0AA59DA
:10544000BD4F089631913D93E817F907D9F7285FCA
:10545000209365020895FC018381833081F130F44B
:105460008130E9F0823019F180E008958132E1F174
:105470008232D1F7248135812130310509F452C0BF
:105480002115310509F446C02230310569F78FE551
:1054900097E190931F0680931E0682E308958FEF95
:1054A00096E190931F0680931E0682E1089584EA98
:1054B00096E190931F0680931E068BE508958281E6
:1054C000813079F0882329F0823071F681E197E10B
:1054D000E8CF89E397E190931F0680931E0684E04E
:1054E000089585E297E1DDCF8281813081F08823C4
:1054F00031F0823009F0B8CF8FEE96E102C086EB32
:1055000096E190931F0680931E0689E008958FEC24
:1055100096E1F7CF81E997E190931F0680931E06ED
:1055200080E408952DE337E130931F0620931E0693
:1055300008951F93CF93DF93E82F792F162FEA0159
:10554000888184FF1CC0298188E828272983CE010F
:105550000296DC012E2F372F512F5E0FF90121917A
:105560002D939F01452F4E1B1416C4F3612F0E94EB
:105570001D0C1C5F1883DF91CF911F9108958AE560
:105580008883E5CF41E056E00C94992A4AE356E03F
:105590000C94992A4DE056E00C94992ACF93DF930E
:1055A00060912006635067FD12C080911C06CCE01C
:1055B000D0E0C81BD109CC5DD94F80911B0680314A
:1055C00008F054C0CE010E94132A10922006809148
:1055D000180184FF3EC0809117018F3FD1F1C82F81
:1055E000893008F0C8E0982F9C1B90931701909188
:1055F000F60528E892279093F6058823E9F0809134
:105600001E0690911F0620911A0626FFAEC0FC01CF
:105610002C2FA7EFB5E034913D9331962150D9F767
:105620009C012F5F3F4F8FEF8C0F820F932F911DA7
:1056300090931F0680931E066C2F87EF95E00E94C3
:105640001D0CCC5FCC3019F08FEF80931701C09305
:10565000180184E199B19C7031F48150D9F710920E
:10566000210610921906DF91CF9108958D3209F02D
:1056700069C0683009F0A9CF83EC8093F6058AE50C
:105680008093180110921A068881807671F0CE01FD
:105690000E94C3298F3FC1F4988197FD8E8190E8C5
:1056A00090931A068093170190CF2A811092FF05DC
:1056B0009981911111C0109200062FEF35E082E020
:1056C00030931F0620931E069F819111EBCF9E8180
:1056D000981740F7892FE6CF953029F420932106BB
:1056E0002FEF35E0EDCF963099F49B81913021F486
:1056F000CE010E942B2A08C09230D1F39330C1F31F
:105700009132B1F39232A1F390E490931A06C2CF92
:10571000983089F0993019F420932306E1CF9A301C
:1057200071F09B30E9F69BE49093020690933B0660
:1057300090930E06D5CF23E236E081E0C1CF2FEF64
:1057400035E0FBCF80911A0687FF3FCFCE010E9444
:10575000FE298F3F21F48EE18093180136CF8823F4
:1057600009F433CF1092170130CFDC012C2FE7EF73
:10577000F5E03D9131932150E1F752CFCF93DF9384
:10578000E9E6F0E0808188608083E99AC1E0D6E0B4
:105790008BE48983AAE3B6E011968C931197EDE030
:1057A000F6E081838AE588838C938083DF91CF91B3
:1057B0000895AA1BBB1B51E107C0AA1FBB1FA61758
:1057C000B70710F0A61BB70B881F991F5A95A9F7AA
:1057D00080959095BC01CD01089597FB072E16F496
:1057E000009407D077FD09D00E94D92B07FC05D083
:1057F0003EF4909581959F4F0895709561957F4FE8
:105800000895EE0FFF1F0590F491E02D099469278C
:10581000962769277827872778270895FB01DC01D9
:1058200004C08D910190801921F441505040C8F777
:10583000881B990B0895F999FECF92BD81BDF89A06
:10584000992780B50895A8E1B0E042E050E00C94BB
:105850004F2C262FF999FECF92BD81BDF89A019762
:1058600000B4021639F01FBA20BD0FB6F894FA9AA8
:10587000F99A0FBE08950396272F0E942A2C0E94A2
:10588000292C252F0E942A2C242F0C942A2C019697
:10589000272F0E942A2C0C94292CDC01CB01FC011F
:1058A000F999FECF06C0F2BDE1BDF89A319600B479
:1058B0000D9241505040B8F70895F894FFCFE6118B
:1058C000E61117121712B012461246124612CC12E7
:1058D000331342134213B61EC31EEA1EF61E011FE7
:1058E0000C1F0F1F0F1F0F1F0F1F0F1F121F161F41
:0C58F0001E1F2B1F381F3B1F3E1F4B1FAD
:1058FC00C80003020021007F220003FF285A292C34
:10590C0029282924290229FF5AE200E900EA00B5D6
:10591C0000B600B700CD008301CC008A019201943F
:10592C00012102230224022502260227022A02B3A5
:10593C0000B4006F007000818283E200E900EA008D
:10594C00B500B600B700CD008301CC008A019201EE
:10595C0094012102230224022502260227022A0294
:10596C00B300B4006F00700081828330979695313C
:10597C00323390919463606162000810181810081B
:10598C000000FF0100010000FFFF0000010001FF0B
:02599C00000009
:00000001FF
